:1008720054696D653D0056613D00766C3D00766FB2
:100882006C746167655F6164633D002020766F6C04
:0A089200746167655F6C64723D00DD
:10099500011711011859011655041900000000042A
:0509A500080000000045
:1009AB00EF4E600F7DFADDFE7DF7DDFEEF1F70F081
:0309BB001E80EDAE
:0109BE002216
:1009BF008F80C2B5D2B67F027E001209ABC2B622BB
:050A0C00D2B40209BF95
:050A1100C2B40209BFA0
:100908007F02120A117F38120A117F0E120A117F14
:0E09180006120A117F01120A117F80020A11D5
:10089C008B1D8A1E891FAB1DAA1EA91F1203606027
:1008AC0013051FE51F7002051E14F9120360FF12D9
:0508BC000A0C80E2229D
:04063C008E218F225A
:10064000E4FBE522452170057F30020A0CC3E52159
:100650006480948050107F2D120A0CC3E49522F51B
:1006600022E49521F521E52245216029AE21AF2222
:100670007C007D0A120379ED2430FFAE030B742356
:100680002EF8A607AE21AF227C007D0A1203798ED8
:10069000218F2280D11BC3EB64809480400C742393
:0A06A0002BF8E6FF120A0C1B80EC99
:0106AA00222D
:080787008F208E1F8D1E8C1DBA
:10078F001202DF8F828E8312063C7F2E120A0CAD6F
:10079F0082AC83EC1202A6A804A905AA06AB07AF88
:1007AF0020AE1FAD1EAC1D120006E4FBFA797A785D
:1007BF00441200FB1202DF8E838F82C3E5836480B5
:1007CF009480500BC3E49582F582E49583F583AF53
:0607DF0082AE8302063C1D
:1008E600E4FF7E07D2A030A10D7401A8060880029D
:1008F600C333D8FC4207C2A01EC3EE648094805066
:01090600E30D
:0109070022CD
:02084300AD07FF
:100845007C07C2A074017E00A804088005C333CECE
:1008550033CED8F9FFEDFBEF5B6003D38001C39284
:0C086500A1D2A01CC3EC6480948050D68B
:010871002264
:0709FE00D2A0D2A1C2A12288
:0909ED00C2A0C2A1D2A0D2A12235
:10094400A9051209FE120843120954AF0112084303
:0C095400C2A0D2A1D2A020A1FDC2A0220E
:070A0500C2A0D2A1D2A02281
:10097C00AE07AA03120944AF02120843120954121B
:09098C0009ED7F0A7E000209ABAF
:02096000AA07E4
:100962001209441209FEEA4401FF12084312095413
:090972001208E6120A051209ED53
:01097B002259
:10092600E5174440FB7D027FD012097CAB187D01A0
:0E0936007FD012097CAB16E4FD7FD002097C55
:10071A007D027FD01209608F17E517541FC4540F4A
:10072A002430F50CE517540F2430F50D750E3A7D7B
:10073A00017FD01209608F18E518C4540F2430F5D0
:10074A000FE518540F2430F51075113AE4FD7FD0E7
:10075A001209608F16E516C4540F2430F512E516F7
:10076A00540F2430F513751420E51730E505751577
:0D077A0050800375154175164DE4F51722EA
:0F09CF00759850758920758BFD758DFDD28E2220
:0709DE007F0D1209E57F0AFD
:0809E5008F993099FDC299229F
:0809F6003098FDC298AF992270
:1008C1008B1D8A1E891FAB1DAA1EA91F1203606002
:1008D10013051FE51F7002051E14F9120360FF12B4
:0508E10009E580E222A0
:0406AB008E218F22EB
:1006AF00E4FBE522452170057F300209E5C3E52112
:1006BF006480948050107F2D1209E5C3E49522F5D4
:1006CF0022E49521F521E52245216029AE21AF22B3
:1006DF007C007D0A120379ED2430FFAE030B7423E7
:1006EF002EF8A607AE21AF227C007D0A1203798E69
:1006FF00218F2280D11BC3EB64809480400C742324
:0A070F002BF8E6FF1209E51B80EC51
:0107190022BD
:0807E5008F208E1F8D1E8C1D5C
:1007ED001202DF8F828E831206AB7F2E1209E5ADCA
:1007FD0082AC83EC1202A6A804A905AA06AB07AF2A
:10080D0020AE1FAD1EAC1D120006E4FBFA797A78FE
:10081D00441200FB1202DF8E838F82C3E583648056
:10082D009480500BC3E49582F582E49583F583AFF4
:06083D0082AE830206AB4F
:10055800E4FDFCC293C290D292D290C290D292D2C1
:1005680090C290D292D290C290C292D290C290C2BF
:1005780092D290C290D290C290D2907B0BC290300F
:10058800911574017E00A803088005C333CE33CECD
:10059800D8F94205EE4204D2901BC3EB64809480E4
:1005A80050DBD293AE04AF05E41202A6E4FBFA795D
:1005B800A078401200FB7B007AF0797F7845120220
:0105C800042E
:0105C900220F
:1005CA00E4FDFCC293C290D292D290C290D292D24F
:1005DA0090C290D292D290C290D292D290C290C23D
:1005EA0092D290C290D290C290D2907B0BC290309D
:1005FA00911574017E00A803088005C333CE33CE5B
:10060A00D8F94205EE4204D2901BC3EB6480948071
:10061A0050DBD293AE04AF05E41202A6E4FBFA79EA
:10062A00A078401200FB7B007AF0797F78451202AD
:01063A0004BB
:01063B00229C
:100412001209081209CF12092612071A1205588F5B
:100422001C8E1B8D1A8C191205CA8F0B8E0A8D0910
:100432008C087BFF7A08797212089C7B007A00791B
:100442000C12089C7FC0120A117BFF7A087978127D
:10045200089CAF1CAE1BAD1AAC191207877F201285
:100462000A0C7BFF7A08797C12089CAF0BAE0AADAE
:1004720009AC081207871209DE7BFF7A087972122B
:1004820008C17B007A00790C1208C11209DE7BFFD9
:100492007A0879801208C1AF1CAE1BAD1AAC1912D2
:1004A20007E57BFF7A08798D1208C1AF0BAE0AAD62
:1004B20009AC081207E57FE87E031209AB7F8012C0
:0A04C2000A117F0C1209E502041B69
:1000030002034BE86480F8E933E83360110460F0DD
:10001300ED33EC337009E8FCE9FDEAFEEBFF220463
:1000230060DED3EB9FEA9EE99DE8C2E78CF0C2F75E
:1000330095F0400CE8CCF8E9CDF9EACEFAEBCFFB2A
:1000430012031685D0F05804700320D5B3E804706A
:10005300075002B2D502035592D5EC0460F7E4CC05
:10006300C0E0C398F8603B94186008400DD0E0FBF3
:1000730002032DE4FBFAC9FC8028E830E406E4C956
:10008300FBE4CAFCE830E305E4C9CACBFCE8540747
:100093006010F8C3E913F9EA13FAEB13FBEC13FC52
:1000A300D8F130F52FC3E49CFCEF9BFFEE9AFEEDF5
:1000B30099FDD0E0FBEF4E4D4C701222DB0302039F
:1000C30052EC2CFCEF33FFEE33FEED33FDED30E766
:1000D300EB02032DEF2BFFEE3AFEED39FDD0E0FBF3
:1000E30050130BBB0003020355ED13FDEE13FEEF9C
:0800F30013FFEC13FC02032DC6
:1000FB00EC4D6011E8497017ED33EC3304600DE4FF
:10010B00FCFFFEFD22E933E8330470F802034B12C7
:10011B00031658046009E4CC2481500628500902C8
:10012B000355284003020352C0E0EB4A7044B980E8
:10013B0006D0E0FB020341EF4E701CBD8008EBFFC5
:10014B00EAFEE9FD80EBE98DF0A4FEE5F00201E4A7
:10015B00E9CDF9EAFEEBFFEF89F0A4FCE5F0CE89DF
:10016B00F0A42EFFE435F0CD89F0A42DFEE435F09C
:10017B008067EF4E7005BD80D780C3EF8BF0A4ACCA
:10018B00F0EE8BF0A42CFCE435F0F8EF8AF0A42C05
:10019B00E5F038FCE433CB8DF0A42CFCE5F03BF818
:1001AB00EE8AF0A42CFCE5F038F8E433CF89F0A408
:1001BB002CFCE5F038CF3400CE89F0A42FFFE5F00E
:1001CB003EFEE433C98DF0A42EFEE5F039CD8AF066
:1001DB00A42FFFE5F03EFEE43DFD33D0E0FB5007DE
:1001EB000BBB000F020355EC2CFCEF33FFEE33FE81
:0601FB00ED33FD02032DAF
:10020100020355EC5D046005E85904700302034BD9
:10021100120316580460F6EC4860F2EC7004FDFE1F
:10022100FF22C860DB2481C85009C39860025006D0
:100231000203529850CAF582E9294B4A7005AB82F4
:1002410002034175F0007C1A7880C3EF9BEE9AEDB2
:1002510099400DC3EF9BFFEE9AFEED99FDE842F048
:10026100DC23ACF0D0E0FFD0E0FED0E0FDAB82209B
:10027100E7101BEB60BAEC2CFCEF33FFEE33FEED25
:1002810033FD02032DE803F830E705C0F075F000F7
:10029100EF2FFFEE33FEED33FD40B830E7C280AA09
:1002A10075F020800E75F010800575F0087D007ED8
:1002B100007F003392D530D5031203AFEC334010E9
:1002C100EF33FFEE33FEED33FDEC33FCD5F0ED22E1
:0E02D100E5F0247EA2D513CC92E7CDCEFF221D
:1002DF00EDD2E7CD33EC3392D524814006E4FFFE17
:1002EF00FDFC22FCE4CFCECDCC24E0501174FF8076
:1002FF00EDC3CC13CCCD13CDCE13CECF13CF047013
:07030F00F030D5DE0203AF60
:10031600E9D2E7C933E833F892D5EDD2E7CD33EC2D
:0703260033FC5002B2D522A6
:10032D00EC30E7100FBF000C0EBE00080DBD000431
:10033D000BEB6014A2D5EB13FCED92E7FD2274FFDD
:10034D00FCFDFEFF22E480F8A2D574FF13FC7D8036
:03035D00E480EF4A
:030000000204CC2B
:0C04CC00787FE4F6D8FD75812C02051342
:10036000BB010689828A83E0225002E722BBFE029B
:09037000E32289828A83E49322CE
:10037900C2D5EC30E709B2D5E4C39DFDE49CFCEE9F
:1003890030E715B2D5E4C39FFFE49EFE1203BDC357
:10039900E49DFDE49CFC80031203BD30D507C3E452
:0603A9009FFFE49EFE220E
:0E03AF00C3E49FFFE49EFEE49DFDE49CFC225F
:1004D800020412E493A3F8E493A34003F68001F224
:1004E80008DFF48029E493A3F85407240CC8C33325
:1004F800C4540F4420C8834004F456800146F6DFF4
:10050800E4800B0102040810204080900995E47EE5
:10051800019360BCA3FF543F30E509541FFEE493E8
:10052800A360010ECF54C025E060A840B8E493A3AF
:10053800FAE493A3F8E493A3C8C582C8CAC583CADA
:10054800F0A3C8C582C8CAC583CADFE9DEE780BE92
:0109AA00004C
:1003BD00BC000BBE0029EF8DF084FFADF022E4CC24
:1003CD00F875F008EF2FFFEE33FEEC33FCEE9DECED
:1003DD00984005FCEE9DFE0FD5F0E9E4CEFD22ED33
:1003ED00F8F5F0EE8420D21CFEADF075F008EF2F7D
:1003FD00FFED33FD4007985006D5F0F222C398FD6E
:05040D000FD5F0EA220A
:00000001FF
