:1007AA00EF4E600F7DFADDFE7DF7DDFEEF1F70F084
:0307BA001E80EDB1
:0107BD002219
:1007BE008F80C2B5D2B67F027E001207AAC2B622C1
:0507DA00D2B40207BECD
:0507DF00C2B40207BED8
:10078C007F021207DF7F381207DF7F0E1207DF7F31
:0E079C00061207DF7F011207DF7F800207DFF2
:100747008B1C8A1D891EAB1CAA1DA91E1203606083
:1007570013051EE51E7002051D14F9120360FF1232
:0507670007DA80E22228
:040673008E108F1145
:10067700E4FBE511451070057F300207DAC3E5108A
:100687006480948050107F2D1207DAC3E49511F52A
:1006970011E49510F510E51145106029AE10AF1162
:1006A7007C007D0A1203CEED2430FFAE030B7412DB
:1006B7002EF8A607AE10AF117C007D0A1203CE8E6E
:1006C700108F1180D11BC3EB64809480400C74128F
:0A06D7002BF8E6FF1207DA1B80EC97
:0106E10022F6
:0806E2008F0F8E0E8D0D8C0CA4
:1006EA001202DF8F828E831206737F2E1207DAAD13
:1006FA0082AC83EC1202A6A804A905AA06AB07AF2E
:10070A000FAE0EAD0DAC0C120006E4FBFA797A7846
:10071A00441200FB1202DF8E838F82C3E58364805A
:10072A009480500BC3E49582F582E49583F583AFF8
:0D073A0082AE831206737FF47E010207AACF
:100412008F828E83E582458370057F300205F6D395
:10042200E582940FE583940050030205A07C007DD1
:100432000FAF82AE83120379D3EF9409EE9400409A
:100442007BEF640A4E70057F411207DA7C007D0F54
:10045200AF82AE83120379EF640B4E70057F4212B6
:1004620007DA7C007D0FAF82AE83120379EF640C52
:100472004E70057F431207DA7C007D0FAF82AE8398
:10048200120379EF640D4E70057F441207DA7C0087
:100492007D0FAF82AE83120379EF640E4E70057F3B
:1004A200451207DA7C007D0FAF82AE83120379EF2B
:1004B200640F4E70157F461207DA800E7C007D0FA6
:1004C200AF82AE831203791206737C007D0FAF8276
:1004D200AE83120379ED24FFFFEC34FFFED3EF94D9
:1004E20009EE9400500302058BEF640A4E70057FFB
:1004F200411207DA7C007D0FAF82AE83120379EDE1
:1005020024FFFFEC34FFFEEF640B4E70057F4212B6
:1005120007DA7C007D0FAF82AE83120379ED24FFF0
:10052200FFEC34FFFEEF640C4E70057F431207DAD6
:100532007C007D0FAF82AE83120379ED24FFFFECC6
:1005420034FFFEEF640D4E70057F441207DA7C0023
:100552007D0FAF82AE83120379ED24FFFFEC34FFEF
:10056200FEEF640E4E70057F451207DA7C007D0FA8
:10057200AF82AE83120379ED24FFFFEC34FFFEEF6E
:10058200640F4E70797F46806B7C007D0FAF82AE28
:1005920083120379ED24FFFFEC34FFFE805DD3E587
:1005A200829409E5839400404EE582640A45837093
:1005B200057F411207DAE582640B458370057F42AD
:1005C2001207DAE582640C458370057F431207DA6D
:1005D200E582640D458370057F441207DAE5826483
:1005E2000E458370057F451207DAE582640F458365
:0F05F200700C7F460207DAAF82AE8312067322C7
:10060100E4FDFCC293C290D292D290C290D292D217
:1006110090C290D292D290C290C292D290C290C215
:1006210092D290C290D290C290D2907B0BC2903065
:10063100911574017E00A803088005C333CE33CE23
:10064100D8F94205EE4204D2901BC3EB648094803A
:1006510050DBD293AE04AF05E41202A6E4FBFA79B3
:10066100A078401200FB7B007AF0797F7845120276
:010671000484
:010672002265
:10076C0012078C1206018F0B8E0A8D098C087F01E3
:10077C001207DFAF0BAE0AAD09AC081206E280E33C
:1000030002034BE86480F8E933E83360110460F0DD
:10001300ED33EC337009E8FCE9FDEAFEEBFF220463
:1000230060DED3EB9FEA9EE99DE8C2E78CF0C2F75E
:1000330095F0400CE8CCF8E9CDF9EACEFAEBCFFB2A
:1000430012031685D0F05804700320D5B3E804706A
:10005300075002B2D502035592D5EC0460F7E4CC05
:10006300C0E0C398F8603B94186008400DD0E0FBF3
:1000730002032DE4FBFAC9FC8028E830E406E4C956
:10008300FBE4CAFCE830E305E4C9CACBFCE8540747
:100093006010F8C3E913F9EA13FAEB13FBEC13FC52
:1000A300D8F130F52FC3E49CFCEF9BFFEE9AFEEDF5
:1000B30099FDD0E0FBEF4E4D4C701222DB0302039F
:1000C30052EC2CFCEF33FFEE33FEED33FDED30E766
:1000D300EB02032DEF2BFFEE3AFEED39FDD0E0FBF3
:1000E30050130BBB0003020355ED13FDEE13FEEF9C
:0800F30013FFEC13FC02032DC6
:1000FB00EC4D6011E8497017ED33EC3304600DE4FF
:10010B00FCFFFEFD22E933E8330470F802034B12C7
:10011B00031658046009E4CC2481500628500902C8
:10012B000355284003020352C0E0EB4A7044B980E8
:10013B0006D0E0FB020341EF4E701CBD8008EBFFC5
:10014B00EAFEE9FD80EBE98DF0A4FEE5F00201E4A7
:10015B00E9CDF9EAFEEBFFEF89F0A4FCE5F0CE89DF
:10016B00F0A42EFFE435F0CD89F0A42DFEE435F09C
:10017B008067EF4E7005BD80D780C3EF8BF0A4ACCA
:10018B00F0EE8BF0A42CFCE435F0F8EF8AF0A42C05
:10019B00E5F038FCE433CB8DF0A42CFCE5F03BF818
:1001AB00EE8AF0A42CFCE5F038F8E433CF89F0A408
:1001BB002CFCE5F038CF3400CE89F0A42FFFE5F00E
:1001CB003EFEE433C98DF0A42EFEE5F039CD8AF066
:1001DB00A42FFFE5F03EFEE43DFD33D0E0FB5007DE
:1001EB000BBB000F020355EC2CFCEF33FFEE33FE81
:0601FB00ED33FD02032DAF
:10020100020355EC5D046005E85904700302034BD9
:10021100120316580460F6EC4860F2EC7004FDFE1F
:10022100FF22C860DB2481C85009C39860025006D0
:100231000203529850CAF582E9294B4A7005AB82F4
:1002410002034175F0007C1A7880C3EF9BEE9AEDB2
:1002510099400DC3EF9BFFEE9AFEED99FDE842F048
:10026100DC23ACF0D0E0FFD0E0FED0E0FDAB82209B
:10027100E7101BEB60BAEC2CFCEF33FFEE33FEED25
:1002810033FD02032DE803F830E705C0F075F000F7
:10029100EF2FFFEE33FEED33FD40B830E7C280AA09
:1002A10075F020800E75F010800575F0087D007ED8
:1002B100007F003392D530D503120404EC33401093
:1002C100EF33FFEE33FEED33FDEC33FCD5F0ED22E1
:0E02D100E5F0247EA2D513CC92E7CDCEFF221D
:1002DF00EDD2E7CD33EC3392D524814006E4FFFE17
:1002EF00FDFC22FCE4CFCECDCC24E0501174FF8076
:1002FF00EDC3CC13CCCD13CDCE13CECF13CF047013
:07030F00F030D5DE0204040A
:10031600E9D2E7C933E833F892D5EDD2E7CD33EC2D
:0703260033FC5002B2D522A6
:10032D00EC30E7100FBF000C0EBE00080DBD000431
:10033D000BEB6014A2D5EB13FCED92E7FD2274FFDD
:10034D00FCFDFEFF22E480F8A2D574FF13FC7D8036
:03035D00E480EF4A
:030000000207CE26
:0C07CE00787FE4F6D8FD75811E02076CF0
:10036000BB010689828A83E0225002E722BBFE029B
:09037000E32289828A83E49322CE
:10037900BC000BBE0029EF8DF084FFADF022E4CC68
:10038900F875F008EF2FFFEE33FEEC33FCEE9DEC31
:10039900984005FCEE9DFE0FD5F0E9E4CEFD22ED77
:1003A900F8F5F0EE8420D21CFEADF075F008EF2FC1
:1003B900FFED33FD4007985006D5F0F222C398FDB2
:0503C9000FD5F0EA224F
:1003CE00C2D5EC30E709B2D5E4C39DFDE49CFCEE4A
:1003DE0030E715B2D5E4C39FFFE49EFE120379C346
:1003EE00E49DFDE49CFC800312037930D507C3E441
:0603FE009FFFE49EFE22B9
:0E040400C3E49FFFE49EFEE49DFDE49CFC2209
:00000001FF
