:1006AE006A616E00466562006D6172004170720093
:1006BE006D6179006A756E006A6C7900617567000C
:1006CE00736570006F6374006E6F7600446563002F
:0906DE00202000504D00414D00A8
:1007FC00012209012310012010011F2001211201E7
:02080C002420A6
:1007E800EF4E600F7DFADDFE7DF7DDFEEF1F70F046
:0307F8001E80ED73
:0107FB0022DB
:10080F008F80C2B5D2B67F027E001207E8C2B62231
:100782007FD01207D3AC07ECC4540F2430FF1207FA
:0707920099EC540F2430FF25
:05079900D2B402080FBC
:05083600C2B402080F2E
:100764007F021208367F381208367F0E1208367F51
:0E077400061208367F011208367F8002083612
:10071D008B088A09890AAB08AA09A90A1202C060C6
:10072D0013050AE50A7002050914F91202C0FF1239
:05073D00079980E22293
:040555008E088F0974
:10055900E4FBE509450870057F30020799C3E50802
:100569006480948050107F2D120799C3E49509F592
:1005790009E49508F508E50945086029AE08AF09B9
:100589007C007D0A1202D9ED2430FFAE030B740AF8
:100599002EF8A607AE08AF097C007D0A1202D98E93
:1005A900088F0980D11BC3EB64809480400C740AC6
:0A05B9002BF8E6FF1207991B80ECF7
:0105C3002215
:0805C4008F288E278D268C255F
:1005CC0012023F8F828E831205557F2E120799AD32
:1005DC0082AC83EC120206A804A905AA06AB07AFED
:1005EC0028AE27AD26AC25120006E4FBFA797A7802
:1005FC00441200FB12023F8E838F82C3E58364801A
:10060C009480500BC3E49582F582E49583F583AF17
:0D061C0082AE831205557FF47E010207E8CF
:10074200E4FF7E07D2A030A10D7401A80608800242
:10075200C333D8FC4207C2A01EC3EE64809480500B
:01076200E3B3
:010763002273
:0706E700120828EA4401FF9C
:0206EE00AD0756
:1006F0007C07C2A074017E00A804088005C333CE25
:1007000033CED8F9FFEDFBEF5B6003D38001C392DA
:0C071000A1D2A01CC3EC6480948050D6E1
:01071C0022BA
:07082800D2A0D2A1C2A1225F
:09081F00C2A0C2A1D2A0D2A12204
:10079E00A9051208281206EE1207AEAF011206EED8
:0C07AE00C2A0D2A1D2A020A1FDC2A022B6
:07082F00C2A0D2A1D2A02259
:1007BA00AE07AA0312079EAF021206EE1207AE1286
:0907CA00081F7F0A7E000207E807
:100629008D298B2A8A2B892C1208288027AB2AAA84
:100639002BA92C1202C06024AF2905291206EE123B
:1006490007AEAB2A052CE52CAA2B7002052B14F951
:100659001202C0FF1206EE1207AE80D112081F7FE8
:060669000A7E000207E812
:0207D300AA0773
:1007D50012079E1206E71207AE12074212082F12E1
:0207E500081FEB
:0107E70022EF
:04066F008D14AA0735
:10067300E4F91208281206EE1207AEAF141206EEC2
:100683001207AE1206E71207AE741529F8E66011D9
:10069300120742AE010974152EF8A60712082F801F
:0A06A300E812081F7B007A007915A9
:0106AD00222A
:10043B00EF12031D046701046F02047703047F04AA
:10044B00048705048F06049707049F0804A7090473
:10045B00AF1004B71104BF12000004C87BFF7A066B
:10046B0079AE80567BFF7A0679B2804E7BFF7A0697
:10047B0079B680467BFF7A0679BA803E7BFF7A0697
:10048B0079BE80367BFF7A0679C2802E7BFF7A0697
:10049B0079C680267BFF7A0679CA801E7BFF7A0697
:1004AB0079CE80167BFF7A0679D2800E7BFF7A0697
:0E04BB0079D680067BFF7A0679DA12071D22B9
:10039800120764AB227D027FD01207BAAB237D011E
:1003A8007FD01207BAAB20E4FD7FD01207BAAB1F8B
:1003B8007D047FD01207BAAB217D057FD01207BA22
:1003C800AB247D067FD01207BA7F801208367D02E3
:1003D8001207827F3A1207997D011207827F3A122B
:1003E8000799E4FD1207827BFF7A0679DE12071D62
:1003F800E5227BFF30E5067A0679E180047A067902
:10040800E412071D7FC01208367D041207827F3A66
:100418001207997D057FD01207D3AC0712043B7FE2
:100428003A1207997F147E001205557D061207823D
:030438000203D1EB
:100003000202ABE86480F8E933E83360110460F07E
:10001300ED33EC337009E8FCE9FDEAFEEBFF220463
:1000230060DED3EB9FEA9EE99DE8C2E78CF0C2F75E
:1000330095F0400CE8CCF8E9CDF9EACEFAEBCFFB2A
:1000430012027685D0F05804700320D5B3E804700B
:10005300075002B2D50202B592D5EC0460F7E4CCA6
:10006300C0E0C398F8603B94186008400DD0E0FBF3
:1000730002028DE4FBFAC9FC8028E830E406E4C9F7
:10008300FBE4CAFCE830E305E4C9CACBFCE8540747
:100093006010F8C3E913F9EA13FAEB13FBEC13FC52
:1000A300D8F130F52FC3E49CFCEF9BFFEE9AFEEDF5
:1000B30099FDD0E0FBEF4E4D4C701222DB030202A0
:1000C300B2EC2CFCEF33FFEE33FEED33FDED30E706
:1000D300EB02028DEF2BFFEE3AFEED39FDD0E0FB94
:1000E30050130BBB00030202B5ED13FDEE13FEEF3D
:0800F30013FFEC13FC02028D67
:1000FB00EC4D6011E8497017ED33EC3304600DE4FF
:10010B00FCFFFEFD22E933E8330470F80202AB1268
:10011B00027658046009E4CC248150062850090269
:10012B0002B52840030202B2C0E0EB4A7044B9802A
:10013B0006D0E0FB0202A1EF4E701CBD8008EBFF66
:10014B00EAFEE9FD80EBE98DF0A4FEE5F00201E4A7
:10015B00E9CDF9EAFEEBFFEF89F0A4FCE5F0CE89DF
:10016B00F0A42EFFE435F0CD89F0A42DFEE435F09C
:10017B008067EF4E7005BD80D780C3EF8BF0A4ACCA
:10018B00F0EE8BF0A42CFCE435F0F8EF8AF0A42C05
:10019B00E5F038FCE433CB8DF0A42CFCE5F03BF818
:1001AB00EE8AF0A42CFCE5F038F8E433CF89F0A408
:1001BB002CFCE5F038CF3400CE89F0A42FFFE5F00E
:1001CB003EFEE433C98DF0A42EFEE5F039CD8AF066
:1001DB00A42FFFE5F03EFEE43DFD33D0E0FB5007DE
:1001EB000BBB000F0202B5EC2CFCEF33FFEE33FE22
:0601FB00ED33FD02028D50
:1002010075F020800E75F010800575F0087D007E78
:10021100007F003392D530D50312030FEC33401029
:10022100EF33FFEE33FEED33FDEC33FCD5F0ED2281
:0E023100E5F0247EA2D513CC92E7CDCEFF22BD
:10023F00EDD2E7CD33EC3392D524814006E4FFFEB7
:10024F00FDFC22FCE4CFCECDCC24E0501174FF8016
:10025F00EDC3CC13CCCD13CDCE13CECF13CF0470B3
:07026F00F030D5DE02030FA1
:10027600E9D2E7C933E833F892D5EDD2E7CD33ECCE
:0702860033FC5002B2D52247
:10028D00EC30E7100FBF000C0EBE00080DBD0004D2
:10029D000BEB6014A2D5EB13FCED92E7FD2274FF7E
:1002AD00FCFDFEFF22E480F8A2D574FF13FC7D80D7
:0302BD00E480EFEB
:030000000204C92E
:0C04C900787FE4F6D8FD75812C02051048
:1002C000BB010689828A83E0225002E722BBFE023C
:0902D000E32289828A83E493226F
:1002D900C2D5EC30E709B2D5E4C39DFDE49CFCEE40
:1002E90030E715B2D5E4C39FFFE49EFE120343C372
:1002F900E49DFDE49CFC800312034330D507C3E46D
:060309009FFFE49EFE22AE
:0E030F00C3E49FFFE49EFEE49DFDE49CFC22FF
:10031D00D083D082F8E4937012740193700DA3A36F
:10032D0093F8740193F5828883E473740293686083
:06033D00EFA3A3A380DF83
:1004D500020398E493A3F8E493A34003F68001F2A2
:1004E50008DFF48029E493A3F85407240CC8C33328
:1004F500C4540F4420C8834004F456800146F6DFF7
:10050500E4800B01020408102040809007FCE47E83
:10051500019360BCA3FF543F30E509541FFEE493EB
:10052500A360010ECF54C025E060A840B8E493A3B2
:10053500FAE493A3F8E493A3C8C582C8CAC583CADD
:10054500F0A3C8C582C8CAC583CADFE9DEE780BE95
:01080E0000E9
:10034300BC000BBE0029EF8DF084FFADF022E4CC9E
:10035300F875F008EF2FFFEE33FEEC33FCEE9DEC67
:10036300984005FCEE9DFE0FD5F0E9E4CEFD22EDAD
:10037300F8F5F0EE8420D21CFEADF075F008EF2FF7
:10038300FFED33FD4007985006D5F0F222C398FDE8
:050393000FD5F0EA2285
:00000001FF
