:1006DE00456E746572207468652070617373776FF0
:1006EE0072643A000A000A76616C69642070617364
:1006FE0073200D0A000A496E76616C696420706180
:10070E007373200D0A000A496E76616C696420705D
:0F071E006173730D0A0061626879756461790017
:1007A800EF4E600F7DFADDFE7DF7DDFEEF1F70F086
:0307B8001E80EDB3
:0107BB00221B
:0F07BC00759850758920758BFD758DFDD28E2235
:0807D7008F993099FDC29922AF
:0807DF003098FDC298AF992289
:10076E008B1D8A1E891FAB1DAA1EA91F1202C060F7
:10077E0013051FE51F7002051E14F91202C0FF12A9
:05078E0007D780E22204
:04060A008E248F2586
:10060E00E4FBE525452470057F300207D7C3E524BA
:10061E006480948050107F2D1207D7C3E49525F582
:10062E0025E49524F524E52545246029AE24AF253F
:10063E007C007D0A12035BED2430FFAE030B7426A3
:10064E002EF8A607AE24AF257C007D0A12035B8E22
:10065E00248F2580D11BC3EB64809480400C7426BC
:0A066E002BF8E6FF1207D71B80EC03
:01067800225F
:080679008F338E328D318C307D
:1006810012023F8F828E8312060A7F2E1207D7AD88
:1006910082AC83EC120206A804A905AA06AB07AF37
:1006A10033AE32AD31AC30120006E4FBFA797A7820
:1006B100441200FB12023F8E838F82C3E583648064
:1006C1009480500BC3E49582F582E49583F583AF62
:0D06D10082AE8312060A7FF47E010207A8A4
:10039F008F828E83E582458370057F30020583D37C
:1003AF00E582940FE5839400500302052D7C007DB8
:1003BF000FAF82AE83120306D3EF9409EE94004081
:1003CF007BEF640A4E70057F411207D77C007D0FCB
:1003DF00AF82AE83120306EF640B4E70057F42129D
:1003EF0007D77C007D0FAF82AE83120306EF640C3C
:1003FF004E70057F431207D77C007D0FAF82AE830F
:10040F00120306EF640D4E70057F441207D77C0070
:10041F007D0FAF82AE83120306EF640E4E70057F21
:10042F00451207D77C007D0FAF82AE83120306EF14
:10043F00640F4E70157F461207D7800E7C007D0F1C
:10044F00AF82AE8312030612060A7C007D0FAF82C5
:10045F00AE83120306ED24FFFFEC34FFFED3EF94BF
:10046F0009EE94005003020518EF640A4E70057FE1
:10047F00411207D77C007D0FAF82AE83120306EDCA
:10048F0024FFFFEC34FFFEEF640B4E70057F42122A
:10049F0007D77C007D0FAF82AE83120306ED24FFDA
:1004AF00FFEC34FFFEEF640C4E70057F431207D74D
:1004BF007C007D0FAF82AE83120306ED24FFFFECAD
:1004CF0034FFFEEF640D4E70057F441207D77C009A
:1004DF007D0FAF82AE83120306ED24FFFFEC34FFD6
:1004EF00FEEF640E4E70057F451207D77C007D0F1F
:1004FF00AF82AE83120306ED24FFFFEC34FFFEEF55
:10050F00640F4E70797F46806B7C007D0FAF82AE9B
:10051F0083120306ED24FFFFEC34FFFE805DD3E56D
:10052F00829409E5839400404EE582640A45837006
:10053F00057F411207D7E582640B458370057F4223
:10054F001207D7E582640C458370057F431207D7E6
:10055F00E582640D458370057F441207D7E58264F9
:10056F000E458370057F451207D7E582640F4583DB
:0F057F00700C7F460207D7AF82AE8312060A22A6
:06072D008B1D8A1E891FCE
:10073300E4FFAB20AA21A9228F827583001202D97C
:1007430060228523827583001202D9FEAB1DAA1E87
:10075300A91F8523827583001202D96E60037F006F
:0A076300220F80CEEFB523027F01C4
:01076D002269
:10058E007BFF7A0779241207938F1CE4FE1207BCB7
:10059E007BFF7A0679DE12076E1207DFAD077F2A20
:1005AE001207D7AF060E74082FF8A605BD0DEA1E6A
:1005BE0074082EF8E4F6FB7A007908120793AE075A
:1005CE007BFF7A0679F212076EEE651C7024F52019
:1005DE007521007522088E237BFF7A077924120776
:1005EE002D7BFFBF01067A0679F4800C7A0779031A
:0B05FE0080067BFF7A07791412076E5D
:0106090022CE
:100003000202ABE86480F8E933E83360110460F07E
:10001300ED33EC337009E8FCE9FDEAFEEBFF220463
:1000230060DED3EB9FEA9EE99DE8C2E78CF0C2F75E
:1000330095F0400CE8CCF8E9CDF9EACEFAEBCFFB2A
:1000430012027685D0F05804700320D5B3E804700B
:10005300075002B2D50202B592D5EC0460F7E4CCA6
:10006300C0E0C398F8603B94186008400DD0E0FBF3
:1000730002028DE4FBFAC9FC8028E830E406E4C9F7
:10008300FBE4CAFCE830E305E4C9CACBFCE8540747
:100093006010F8C3E913F9EA13FAEB13FBEC13FC52
:1000A300D8F130F52FC3E49CFCEF9BFFEE9AFEEDF5
:1000B30099FDD0E0FBEF4E4D4C701222DB030202A0
:1000C300B2EC2CFCEF33FFEE33FEED33FDED30E706
:1000D300EB02028DEF2BFFEE3AFEED39FDD0E0FB94
:1000E30050130BBB00030202B5ED13FDEE13FEEF3D
:0800F30013FFEC13FC02028D67
:1000FB00EC4D6011E8497017ED33EC3304600DE4FF
:10010B00FCFFFEFD22E933E8330470F80202AB1268
:10011B00027658046009E4CC248150062850090269
:10012B0002B52840030202B2C0E0EB4A7044B9802A
:10013B0006D0E0FB0202A1EF4E701CBD8008EBFF66
:10014B00EAFEE9FD80EBE98DF0A4FEE5F00201E4A7
:10015B00E9CDF9EAFEEBFFEF89F0A4FCE5F0CE89DF
:10016B00F0A42EFFE435F0CD89F0A42DFEE435F09C
:10017B008067EF4E7005BD80D780C3EF8BF0A4ACCA
:10018B00F0EE8BF0A42CFCE435F0F8EF8AF0A42C05
:10019B00E5F038FCE433CB8DF0A42CFCE5F03BF818
:1001AB00EE8AF0A42CFCE5F038F8E433CF89F0A408
:1001BB002CFCE5F038CF3400CE89F0A42FFFE5F00E
:1001CB003EFEE433C98DF0A42EFEE5F039CD8AF066
:1001DB00A42FFFE5F03EFEE43DFD33D0E0FB5007DE
:1001EB000BBB000F0202B5EC2CFCEF33FFEE33FE22
:0601FB00ED33FD02028D50
:1002010075F020800E75F010800575F0087D007E78
:10021100007F003392D530D503120391EC334010A7
:10022100EF33FFEE33FEED33FDEC33FCD5F0ED2281
:0E023100E5F0247EA2D513CC92E7CDCEFF22BD
:10023F00EDD2E7CD33EC3392D524814006E4FFFEB7
:10024F00FDFC22FCE4CFCECDCC24E0501174FF8016
:10025F00EDC3CC13CCCD13CDCE13CECF13CF0470B3
:07026F00F030D5DE0203911F
:10027600E9D2E7C933E833F892D5EDD2E7CD33ECCE
:0702860033FC5002B2D52247
:10028D00EC30E7100FBF000C0EBE00080DBD0004D2
:10029D000BEB6014A2D5EB13FCED92E7FD2274FF7E
:1002AD00FCFDFEFF22E480F8A2D574FF13FC7D80D7
:0302BD00E480EFEB
:030000000207CB29
:0C07CB00787FE4F6D8FD75813302058EBE
:1002C000BB010689828A83E0225002E722BBFE023C
:0902D000E32289828A83E493226F
:1002D900BB010CE58229F582E5833AF583E02250DA
:1002E90006E92582F8E622BBFE06E92582F8E22224
:0D02F900E58229F582E5833AF583E493223E
:10030600BC000BBE0029EF8DF084FFADF022E4CCDB
:10031600F875F008EF2FFFEE33FEEC33FCEE9DECA4
:10032600984005FCEE9DFE0FD5F0E9E4CEFD22EDEA
:10033600F8F5F0EE8420D21CFEADF075F008EF2F34
:10034600FFED33FD4007985006D5F0F222C398FD25
:050356000FD5F0EA22C2
:10035B00C2D5EC30E709B2D5E4C39DFDE49CFCEEBD
:10036B0030E715B2D5E4C39FFFE49EFE120306C32C
:10037B00E49DFDE49CFC800312030630D507C3E427
:06038B009FFFE49EFE222C
:0E039100C3E49FFFE49EFEE49DFDE49CFC227D
:10079300E4FFFE1202C0600C0FEF70010E09E97056
:0507A300F20A80EF22C4
:00000001FF
