:1006E0000A0077656C636F6D652061626879756477
:1006F00061790A0077656C636F6D6520757661625C
:10070000726B68690A00796F75206E6F742070656E
:10071000726D69747465640A003030333236323079
:0B0720003400313536343537343500F5
:10078500EF4E600F7DFADDFE7DF7DDFEEF1F70F0A9
:030795001E80EDD6
:01079800223E
:0F079900759850758920758BFD758DFDD28E2258
:0807B4008F993099FDC29922D2
:0807BC003098FDC298AF9922AC
:100760008B208A218922AB20AA21A9221202C060F3
:10077000130522E5227002052114F91202C0FF12AE
:0507800007B480E22235
:04060C008E088F09BC
:10061000E4FBE509450870057F300207B4C3E5082F
:100620006480948050107F2D1207B4C3E49509F5BF
:1006300009E49508F508E50945086029AE08AF0901
:100640007C007D0A12035BED2430FFAE030B740ABD
:100650002EF8A607AE08AF097C007D0A12035B8E58
:10066000088F0980D11BC3EB64809480400C740A0E
:0A0670002BF8E6FF1207B41B80EC24
:01067A00225D
:08067B008F2A8E298D288C279F
:1006830012023F8F828E8312060C7F2E1207B4ADA7
:1006930082AC83EC120206A804A905AA06AB07AF35
:1006A3002AAE29AD28AC27120006E4FBFA797A7842
:1006B300441200FB12023F8E838F82C3E583648062
:1006C3009480500BC3E49582F582E49583F583AF60
:0D06D30082AE8312060C7FF47E01020785C3
:10039F008F828E83E582458370057F30020583D37C
:1003AF00E582940FE5839400500302052D7C007DB8
:1003BF000FAF82AE83120306D3EF9409EE94004081
:1003CF007BEF640A4E70057F411207B47C007D0FEE
:1003DF00AF82AE83120306EF640B4E70057F42129D
:1003EF0007B47C007D0FAF82AE83120306EF640C5F
:1003FF004E70057F431207B47C007D0FAF82AE8332
:10040F00120306EF640D4E70057F441207B47C0093
:10041F007D0FAF82AE83120306EF640E4E70057F21
:10042F00451207B47C007D0FAF82AE83120306EF37
:10043F00640F4E70157F461207B4800E7C007D0F3F
:10044F00AF82AE8312030612060C7C007D0FAF82C3
:10045F00AE83120306ED24FFFFEC34FFFED3EF94BF
:10046F0009EE94005003020518EF640A4E70057FE1
:10047F00411207B47C007D0FAF82AE83120306EDED
:10048F0024FFFFEC34FFFEEF640B4E70057F42122A
:10049F0007B47C007D0FAF82AE83120306ED24FFFD
:1004AF00FFEC34FFFEEF640C4E70057F431207B470
:1004BF007C007D0FAF82AE83120306ED24FFFFECAD
:1004CF0034FFFEEF640D4E70057F441207B47C00BD
:1004DF007D0FAF82AE83120306ED24FFFFEC34FFD6
:1004EF00FEEF640E4E70057F451207B47C007D0F42
:1004FF00AF82AE83120306ED24FFFFEC34FFFEEF55
:10050F00640F4E70797F46806B7C007D0FAF82AE9B
:10051F0083120306ED24FFFFEC34FFFE805DD3E56D
:10052F00829409E5839400404EE582640A45837006
:10053F00057F411207B4E582640B458370057F4246
:10054F001207B4E582640C458370057F431207B42C
:10055F00E582640D458370057F441207B4E582641C
:10056F000E458370057F451207B4E582640F4583FE
:0F057F00700C7F460207B4AF82AE8312060C22C7
:06072B008B208A218922C7
:10073100E4FFAB23AA24A9258F827583001202D975
:10074100FEAB20AA21A9228F827583001202D96EE5
:0E07510060037F00220FBF08D9BF08027F019E
:01075F002277
:10058E001207991207BCE4F51F1207BC7415251F3C
:10059E00F8A607051FE51FC3940840ED7B007A00FF
:1005AE0079151207607BFF7A0679E01207607523D2
:1005BE00007524007525157526087BFF7A077919B5
:1005CE0012072B8F14E514B401087BFF7A0679E22B
:1005DE0080287523007524007525157526087BFF68
:1005EE007A07792212072B8F14E5147BFFB40106CC
:0E05FE007A0679F480047A07790612076022E3
:100003000202ABE86480F8E933E83360110460F07E
:10001300ED33EC337009E8FCE9FDEAFEEBFF220463
:1000230060DED3EB9FEA9EE99DE8C2E78CF0C2F75E
:1000330095F0400CE8CCF8E9CDF9EACEFAEBCFFB2A
:1000430012027685D0F05804700320D5B3E804700B
:10005300075002B2D50202B592D5EC0460F7E4CCA6
:10006300C0E0C398F8603B94186008400DD0E0FBF3
:1000730002028DE4FBFAC9FC8028E830E406E4C9F7
:10008300FBE4CAFCE830E305E4C9CACBFCE8540747
:100093006010F8C3E913F9EA13FAEB13FBEC13FC52
:1000A300D8F130F52FC3E49CFCEF9BFFEE9AFEEDF5
:1000B30099FDD0E0FBEF4E4D4C701222DB030202A0
:1000C300B2EC2CFCEF33FFEE33FEED33FDED30E706
:1000D300EB02028DEF2BFFEE3AFEED39FDD0E0FB94
:1000E30050130BBB00030202B5ED13FDEE13FEEF3D
:0800F30013FFEC13FC02028D67
:1000FB00EC4D6011E8497017ED33EC3304600DE4FF
:10010B00FCFFFEFD22E933E8330470F80202AB1268
:10011B00027658046009E4CC248150062850090269
:10012B0002B52840030202B2C0E0EB4A7044B9802A
:10013B0006D0E0FB0202A1EF4E701CBD8008EBFF66
:10014B00EAFEE9FD80EBE98DF0A4FEE5F00201E4A7
:10015B00E9CDF9EAFEEBFFEF89F0A4FCE5F0CE89DF
:10016B00F0A42EFFE435F0CD89F0A42DFEE435F09C
:10017B008067EF4E7005BD80D780C3EF8BF0A4ACCA
:10018B00F0EE8BF0A42CFCE435F0F8EF8AF0A42C05
:10019B00E5F038FCE433CB8DF0A42CFCE5F03BF818
:1001AB00EE8AF0A42CFCE5F038F8E433CF89F0A408
:1001BB002CFCE5F038CF3400CE89F0A42FFFE5F00E
:1001CB003EFEE433C98DF0A42EFEE5F039CD8AF066
:1001DB00A42FFFE5F03EFEE43DFD33D0E0FB5007DE
:1001EB000BBB000F0202B5EC2CFCEF33FFEE33FE22
:0601FB00ED33FD02028D50
:1002010075F020800E75F010800575F0087D007E78
:10021100007F003392D530D503120391EC334010A7
:10022100EF33FFEE33FEED33FDEC33FCD5F0ED2281
:0E023100E5F0247EA2D513CC92E7CDCEFF22BD
:10023F00EDD2E7CD33EC3392D524814006E4FFFEB7
:10024F00FDFC22FCE4CFCECDCC24E0501174FF8016
:10025F00EDC3CC13CCCD13CDCE13CECF13CF0470B3
:07026F00F030D5DE0203911F
:10027600E9D2E7C933E833F892D5EDD2E7CD33ECCE
:0702860033FC5002B2D52247
:10028D00EC30E7100FBF000C0EBE00080DBD0004D2
:10029D000BEB6014A2D5EB13FCED92E7FD2274FF7E
:1002AD00FCFDFEFF22E480F8A2D574FF13FC7D80D7
:0302BD00E480EFEB
:030000000207A84C
:0C07A800787FE4F6D8FD75812A02058EEA
:1002C000BB010689828A83E0225002E722BBFE023C
:0902D000E32289828A83E493226F
:1002D900BB010CE58229F582E5833AF583E02250DA
:1002E90006E92582F8E622BBFE06E92582F8E22224
:0D02F900E58229F582E5833AF583E493223E
:10030600BC000BBE0029EF8DF084FFADF022E4CCDB
:10031600F875F008EF2FFFEE33FEEC33FCEE9DECA4
:10032600984005FCEE9DFE0FD5F0E9E4CEFD22EDEA
:10033600F8F5F0EE8420D21CFEADF075F008EF2F34
:10034600FFED33FD4007985006D5F0F222C398FD25
:050356000FD5F0EA22C2
:10035B00C2D5EC30E709B2D5E4C39DFDE49CFCEEBD
:10036B0030E715B2D5E4C39FFFE49EFE120306C32C
:10037B00E49DFDE49CFC800312030630D507C3E427
:06038B009FFFE49EFE222C
:0E039100C3E49FFFE49EFEE49DFDE49CFC227D
:00000001FF
